:1000000090C2AAC2A9C2A8C2A7C2A6C2A5C2A4C2BF
:10001000A3C2A2C2A1C2A0C29FC29EC29DC29CC2D4
:100020009BC29AC299C200000000003E5B4F5B3E3B
:100030003E6B4F6B3E1C3E7C3E1C183C7E3C181CAD
:10004000577D571C1C5E7F5E1C00183C1800FFE7A4
:10005000C3E7FF0018241800FFE7DBE7FF30483A4A
:10006000060E2629792926407F050507407F0525AC
:100070003F5A3CE73C5A7F3E1C1C08081C1C3E7F34
:1000800014227F22145F5F005F5F06097F017F00FB
:100090006689956A606060606094A2FFA29408041B
:1000A0007E040810207E201008082A1C08081C2A3C
:1000B00008081E101010100C1E0C1E0C30383E3894
:1000C00030060E3E0E06000000000000005F00003B
:1000D0000007000700147F147F14242A7F2A1223AC
:1000E0001308646236495620500008070300001CBC
:1000F0002241000041221C002A1C7F1C2A08083EC5
:1001000008080080703000080808080800006060D7
:100110000020100804023E5149453E00427F400045
:1001200072494949462141494D331814127F10271D
:10013000454545393C4A494931412111090736496C
:10014000494936464949291E000014000000403440
:100150000000000814224114141414140041221445
:100160000802015909063E415D594E7C1211127C6C
:100170007F494949363E414141227F4141413E7FCD
:10018000494949417F090909013E414151737F08AD
:1001900008087F00417F41002040413F017F081453
:1001A00022417F404040407F021C027F7F040810B4
:1001B0007F3E4141413E7F090909063E4151215E92
:1001C0007F09192946264949493203017F01033F26
:1001D0004040403F1F2040201F3F4038403F6314B5
:1001E00008146303047804036159494D43007F41B7
:1001F00041410204081020004141417F04020102F4
:100200000440404040400003070800205454784018
:100210007F284444383844444428384444287F38AC
:100220005454541800087E090218A4A49C787F082E
:1002300004047800447D40002040403D007F1028A9
:10024000440000417F40007C047804787C0804046A
:10025000783844444438FC1824241818242418FC02
:100260007C08040408485454542404043F44243CA7
:100270004040207C1C2040201C3C4030403C442816
:100280001028444C9090907C4464544C44000836B0
:10029000410000007700000041360800020102041E
:1002A000023C2623263C1EA1A161123A4040207A3E
:1002B0003854545559215555794122545478422186
:1002C0005554784020545579400C1E5272123955BD
:1002D00055555939545454593955545458000045BA
:1002E0007C410002457D420001457C407D12111297
:1002F0007DF0282528F07C545545002054547C542A
:100300007C0A097F4932494949323A4444443A32E5
:100310004A4848303A4141217A3A42402078009D8B
:10032000A0A07D3D4242423D3D4040403D3C24FF37
:100330002424487E4943662B2FFC2F2BFF0929F6E6
:1003400020C0887E090320545479410000447D4137
:100350003048484A32384040227A007A0A0A727D90
:100360000D19317D2629292F2826292929263048AB
:100370004D4020380808080808080808382F10C819
:10038000ACBA2F102834FA00007B000008142A149D
:100390002222142A1408AA005500AAAA55AA55AA6E
:1003A000000000FF00101010FF00141414FF0010D4
:1003B00010FF00FF1010F010F0141414FC001414BF
:1003C000F700FF0000FF00FF1414F404FC141417DE
:1003D000101F10101F101F1414141F00101010F005
:1003E000000000001F101010101F10101010F0104F
:1003F000000000FF101010101010101010FF10005F
:100400000000FF140000FF00FF00001F1017000095
:10041000FC04F414141710171414F404F40000FF6F
:1004200000F714141414141414F700F71414141708
:100430001410101F101F141414F4141010F010F0E6
:1004400000001F101F0000001F14000000FC14001B
:1004500000F010F01010FF10FF141414FF1410100F
:10046000101F00000000F010FFFFFFFFFFF0F0F092
:10047000F0F0FFFFFF0000000000FFFF0F0F0F0F65
:100480000F3844443844FC4A4A4A347E0202060685
:10049000027E027E0263554941633844443C044075
:1004A0007E201E2006027E020299A5E7A5991C2A3D
:1004B000492A1C4C7201724C304A4D4D30304878FC
:1004C0004830BC625A463D3E494949007E0101011F
:1004D0007E2A2A2A2A2A44445F444440514A4440FE
:1004E00040444A51400000FF0103E080FF00000843
:1004F000086B6B083612362436060F090F0600000B
:1005000018180000001010003040FF0101001F010A
:10051000011E00191D1712003C3C3C3C000000006D
:10052000000011241FBECFE5D4E0DEBFCDBF10E038
:10053000A0E6B0E0E6EDF3E102C005900D92A6372B
:10054000B107D9F720E0A6E7B0E001C01D92AA37B5
:10055000B207E1F780D33DC753CD87B38D6387BB27
:1005600088B38A7F88BB87B3826087BB88E58DB9F3
:1005700008958FB9779BFECF8FB190E0089598B31F
:100580009B7F98BB98B39E7F98BBF3DF88B3816055
:1005900088BB089598B3946098BB98B39E7F98BB2E
:1005A000E8DF88B3816088BB0895CF93C82F86E3C6
:1005B000E6DFC130A9F028F0C23009F1C33071F193
:1005C0003BC088E4E7DF80EF90E090937900809370
:1005D000780080E491E090937700809376002CC0BF
:1005E00088E2D8DF80E491E09093790080937800EE
:1005F00080EF90E090937700809376001DC088E8AC
:10060000C9DF80EF90E0909379008093780080E4D8
:1006100091E090937700809376000EC088EEBADF69
:1006200080E491E0909379008093780080EF90E0EF
:100630009093770080937600CF910895CF93C82F41
:100640008CDF88B3826088BB2FEF83EC99E0215068
:1006500080409040E1F700C0000088B38D7F88BBE8
:100660002FEF83EC99E0215080409040E1F700C0EB
:10067000000088B3826088BB81E081DF2FEF83EDCB
:1006800090E3215080409040E1F700C000008BECE7
:1006900076DF89E37FDF8CE27DDF80E07BDF84E350
:1006A00079DF82E077DF8FEC6ADF80E073DF81EC57
:1006B00071DF80E36FDF88EE62DF85E86BDF80E06B
:1006C00069DF88E767DF8AEE5ADF80E063DF80E07A
:1006D00061DF8DEE54DF84E65DDF83E05BDF82E186
:1006E00059DF81E857DF87EF4ADF80E253DF80EC94
:1006F00046DF80E14FDF81EC42DF80E14BDF85ECBC
:100700003EDF8EE347DF88E245DF87EC38DF86E8AF
:1007100041DF8C2F4ADF8AE332DF85E53BDF81EB67
:100720002EDF80E037DF88E135DF86EB28DF88E0E9
:1007300031DF82E82FDF87E22DDF82EF20DF80E0EC
:1007400029DF86E21CDF81E025DF80EE18DF8FE005
:1007500021DF81E31FDF8BE21DDF8CE01BDF8EE0FA
:1007600019DF88E017DF8EE415DF81EF13DF87E301
:1007700011DF87E00FDF80E10DDF83E00BDF8EE02C
:1007800009DF89E007DF80E005DF81EEF8DE80E049
:1007900001DF8EE0FFDE84E1FDDE83E0FBDE81E150
:1007A000F9DE87E0F7DE81E3F5DE81ECF3DE88E455
:1007B000F1DE88E0EFDE8FE0EDDE8CE0EBDE81E362
:1007C000E9DE86E3E7DE8FE0E5DE81E1D8DE2FEFCC
:1007D00082E597E0215080409040E1F700C00000A2
:1007E00089E2CDDE8CE2D6DE2FEF82E597E0215064
:1007F00080409040E1F700C00000CF910895CF9273
:10080000DF92EF92FF920F931F93CF93DF93D82E37
:10081000C92E162F072FF42EE52EC22FD32F8AE2D2
:10082000AEDE8C2DB7DE8D2DB5DE8E2DB3DE8F2D99
:10083000B1DE8BE2A4DE802FADDE812FABDE8D2F0B
:10084000A9DE8C2FA7DE8CE29ADEDF91CF911F917B
:100850000F91FF90EF90DF90CF900895CF93DF93AB
:1008600099231CF177230CF1E0917800F091790045
:100870008E179F07D0F42091760030917700621791
:10088000730798F4D52FC42FAF01B9DF88B38B7FDE
:1008900088BB8CE274DE88B3846088BB88B38160D7
:1008A00088BB8D2F77DE8C2F75DEDF91CF91089579
:1008B000CF92DF92EF92FF920F931F93CF93DF932C
:1008C0006A017901209178003091790082179307AD
:1008D000B8F540917600509177006417750780F560
:1008E000FC01EC0DFD1D3197E217F30718F06901CB
:1008F000C81AD90A9B012E0D3F1D2150310924171A
:10090000350718F07A01E61AF70A9701260F371F04
:10091000A601480F591F21503109415051096FDF7D
:100920000CC0812F37DE802F35DE219701C0E60114
:100930002097B9F781E0E81AF108E114F104B9F75A
:10094000DF91CF911F910F91FF90EF90DF90CF90AB
:1009500008950F931F938C0120EF30E040E451E0A5
:1009600060E070E080E090E0A3DF1F910F910895B8
:100970004F925F926F927F928F929F92AF92BF92AF
:10098000CF92DF92EF92FF920F931F93CF93DF935B
:10099000E0917800F09179008E179F0708F098C0D9
:1009A000E0917600F09177006E177F0708F090C015
:1009B000F701EE0FFF1FEE0DFF1DEE0FFF1FE80FFB
:1009C000F91F31970AF484C0F701EE0FFF1FEE0FF5
:1009D000FF1FEE0FFF1FE60FF71F31970AF478C0D5
:1009E00038016901442E4B015C01512C6DC025E09A
:1009F000521689F0842D90E0FC01EE0FFF1FEE0FE0
:100A0000FF1FE80FF91FE50DF11D57FCFA95EA5D90
:100A1000FF4FC49101C0C0E0D0E052C0C0FF26C06B
:100A200031E0E316F10469F4A601B4016D0F711D04
:100A3000D7FD7A95C501850D911D57FC9A950EDF5E
:100A40003DC04D2F97014203B001439F700D11240B
:100A5000680D791D452D4203C001439F900D11245F
:100A60008601A7018A0D9B1D23DF28C0C614D70469
:100A700029F181E0E816F10469F4A301B4016D0FD6
:100A8000711DD7FD7A95C501850D911D57FC9A956D
:100A9000E5DE14C04D2F97014203B001439F700D56
:100AA0001124680D791D452D4203C001439F900D0F
:100AB00011248301A7018A0D9B1DFADEC695DF5F15
:100AC000D8300CF4ABCF539485E085150CF08FCF64
:100AD000DF91CF911F910F91FF90EF90DF90CF901A
:100AE000BF90AF909F908F907F906F905F904F904E
:100AF00008953F924F925F926F927F928F929F9252
:100B0000AF92BF92CF92DF92EF92FF920F931F931B
:100B1000CF93DF936C013B012A0149015801E701A2
:100B2000312C19C0832D90E09C01220F331F820FBE
:100B3000931F9C01220F331F2C9FC0012D9F900DEE
:100B40003C9F900D11247E0185019401B201860D18
:100B5000971D0EDF3394F601E30DF11D4081411125
:100B6000E1CFDF91CF911F910F91FF90EF90DF9038
:100B7000CF90BF90AF909F908F907F906F905F903D
:100B80004F903F9008958F929F92AF92BF92CF92D5
:100B9000DF92EF92FF920F931F93CF93DF9300D0DA
:100BA00000D01F92CDB7DEB76C0186D0F601208150
:100BB000918182811F922F931F929F931F928F93F7
:100BC0000F2EF7E68F2EF0E09F2EF02D9F928F9242
:100BD000CE0101965C019F938F9323D10F2EF5E0F8
:100BE000EF2EF12CF02D00E010E020E038EF46E988
:100BF00050E062E370E0C5017CDFF601268195815B
:100C000084811F922F931F929F931F928F939F9285
:100C10008F92BF92AF9205D120E038EF40EF50E0C5
:100C200068E171E0C50165DF0FB6F894DEBF0FBE65
:100C3000CDBF0F900F900F900F900F90DF91CF913D
:100C40001F910F91FF90EF90DF90CF90BF90AF90EA
:100C50009F908F90089583E0F1DC80E090E079DE52
:100C6000C4D080E690E097D080E690E08CDF8FE102
:100C70009EE40197F1F700C00000F6CF982F9295FF
:100C80009F70990F292F220F220F920F8F70890FBB
:100C900008959DEC899F912D112496959695969592
:100CA00020E1929FA0011124990F292F220F220FDA
:100CB000920F891B842B08950F931F93CF93DF937B
:100CC000CDB7DEB727970FB6F894DEBF0FBECDBF06
:100CD0008C0190D080ED90E093D080E090E090D0B7
:100CE0009DD02FE58AEE90E0215080409040E1F7C2
:100CF00000C000007FD081ED90E082D088D0F80164
:100D0000808385D0F801818382D0F80182837FD0EF
:100D1000F80183837CD0F801848379D0F80185833E
:100D200076D0F80186837AD0F8018081A7DFF801B8
:100D300080838181A3DFF801818382819FDFF801B5
:100D4000828383819BDFF8018383868197DFF801AB
:100D50008683858193DFF801858384818FDFF801A5
:100D6000848387E0DE01119601900D928A95E1F768
:100D700029813A814B815C816D817E818F8190E0F8
:100D800027960FB6F894DEBF0FBECDBFDF91CF918F
:100D90001F910F910895CF93DF93EC012BD080ED3D
:100DA00090E02ED080E090E02BD0888172DF90E040
:100DB00027D089816EDF90E023D08A816ADF90E0BE
:100DC0001FD08B8166DF90E01BD08C8162DF90E0CA
:100DD00017D08D815EDF90E013D08E815ADF90E0D6
:100DE0000FD01CD0DF91CF91089581E081B982E1CD
:100DF00080B9089584EA86BF06B607FEFDCF089540
:100E000083B984E886BF06B607FEFDCF089584EC5B
:100E100086BF06B607FEFDCF83B1089584E986BF7D
:100E20000895AEE0B0E0E6E1F7E0AAC20D891E89C0
:100E300086E08C831A8309838FEF9FE79E838D83DF
:100E4000AE01475E5F4F6F89788DCE01019608D065
:100E5000EF81F885E00FF11F10822E96E4E0ACC21E
:100E6000ABE0B0E0E5E3F7E07DC26C017B018A0115
:100E7000FC0117821682838181FFBFC1CE010196DA
:100E80003C01F6019381F70193FD859193FF8191D8
:100E90007F01882309F4ADC1853239F493FD859132
:100EA00093FF81917F01853221F4B60190E0C0D19A
:100EB000E8CF912C212C312CFFE1F315D8F08B32A7
:100EC00079F038F4803279F08332A1F4232D206157
:100ED0001DC08D3261F0803369F4232D216016C06E
:100EE000832D8260382EE32DE4603E2E2AC0F32D40
:100EF000F8601DC037FC2DC020ED280F2A3040F0CF
:100F00008E32B9F436FC75C1232D2064322E19C0FF
:100F100036FE06C08AE0989E200D1124922E11C044
:100F2000EAE02E9E200D1124222EF32DF0623F2E9A
:100F300008C08C3621F4832D8068382E02C0883694
:100F400041F4F70193FD859193FF81917F01811118
:100F5000B3CF982F9F7D9554933028F40C5F1F4F8B
:100F60009FE399830DC0833631F0833771F0833569
:100F700009F055C020C0F801808189830E5F1F4FA2
:100F800088248394912C530112C02801F2E04F0E63
:100F9000511CF801A080B18036FE03C0692D70E0BD
:100FA00002C06FEF7FEFC50138D14C018201F32DF4
:100FB000FF773F2E15C0280122E0420E511CF80198
:100FC000A080B18036FE03C0692D70E002C06FEFD3
:100FD0007FEFC50117D14C01F32DF0683F2E820140
:100FE00033FC19C0822D90E088169906A0F4B60152
:100FF00080E290E01DD12A94F5CFF50137FC859170
:1010000037FE81915F01B60190E012D121102A9440
:1010100021E0821A91088114910479F7E1C08436A5
:1010200011F0893639F5F80137FE07C0608171810A
:10103000828193810C5F1F4F08C060817181072EF0
:10104000000C880B990B0E5F1F4FF32DFF763F2E80
:1010500097FF09C090958095709561957F4F8F4F50
:101060009F4FF0683F2E2AE030E0A3011DD1882E6B
:10107000861844C0853731F4232D2F7EB22E2AE006
:1010800030E025C0932D997FB92E8F36C1F018F42A
:10109000883579F0AEC0803719F0883721F0A9C0C3
:1010A000E92FE061BE2EB4FE0DC0FB2DF460BF2E13
:1010B00009C034FE0AC0292F2660B22E06C028E0DF
:1010C00030E005C020E130E002C020E132E0F8016C
:1010D000B7FE07C060817181828193810C5F1F4FD1
:1010E00006C06081718180E090E00E5F1F4FA30118
:1010F000DBD0882E8618FB2DFF773F2E36FE0DC0E5
:10110000232D2E7FA22E891458F434FE0BC032FCFE
:1011100009C0832D8E7EA82E05C0B82CA32C03C039
:10112000B82C01C0B92CA4FE0FC0FE01E80DF11DC2
:101130008081803321F49A2D997EA92E09C0A2FEC8
:1011400006C0B394B39404C08A2D867809F0B39492
:10115000A3FC10C0A0FE06C0B21480F4280C922C90
:101160009B180DC0B21458F4B60180E290E060D034
:10117000B394F8CFB21418F42B1802C0982C212C79
:10118000A4FE0FC0B60180E390E052D0A2FE16C0CC
:10119000A1FC03C088E790E002C088E590E0B601BA
:1011A0000CC08A2D867851F0A1FE02C08BE201C0EE
:1011B00080E2A7FC8DE2B60190E03AD0891430F4C9
:1011C000B60180E390E034D09A94F8CF8A94F3018A
:1011D000E80DF11D8081B60190E02AD08110F6CF94
:1011E000222009F44ECEB60180E290E021D02A946C
:1011F000F7CFF6018681978102C08FEF9FEF2B9684
:10120000E2E1CCC0FC010590615070400110D8F7BC
:10121000809590958E0F9F1F0895FC01615070403E
:1012200001900110D8F7809590958E0F9F1F08951B
:101230000F931F93CF93DF93FB01238121FD03C005
:101240008FEF9FEF2CC022FF16C04681578124816B
:1012500035814217530744F4A081B1819D012F5F6E
:101260003F4F318320838C93268137812F5F3F4FFF
:101270003783268314C08B01EC01FB010084F185C8
:10128000E02D0995892BE1F6D80116968D919C9158
:101290001797019617969C938E931697CE01DF9120
:1012A000CF911F910F910895FA01AA27283051F18B
:1012B000203181F1E8946F936E7F6E5F7F4F8F4F87
:1012C0009F4FAF4FB1E03ED0B4E03CD0670F781FE6
:1012D000891F9A1FA11D680F791F8A1F911DA11DCB
:1012E0006A0F711D811D911DA11D20D009F4689404
:1012F0003F912AE0269F11243019305D3193DEF6AC
:10130000CF010895462F4770405D4193B3E00FD061
:10131000C9F7F6CF462F4F70405D4A3318F0495D4C
:1013200031FD4052419302D0A9F7EACFB4E0A6952F
:101330009795879577956795BA95C9F70097610551
:10134000710508959B01AC010A2E069457954795A7
:1013500037952795BA95C9F7620F731F841F951F9C
:10136000A01D08952F923F924F925F926F927F92AD
:101370008F929F92AF92BF92CF92DF92EF92FF92A5
:101380000F931F93CF93DF93CDB7DEB7CA1BDB0B51
:101390000FB6F894DEBF0FBECDBF09942A883988F6
:1013A00048885F846E847D848C849B84AA84B984FD
:1013B000C884DF80EE80FD800C811B81AA81B98109
:1013C000CE0FD11D0FB6F894DEBF0FBECDBFED011D
:0613D0000895F894FFCF20
:1013D600000017050B0214253032643A25303264BA
:0613E6003A2530326400DC
:00000001FF
